0117943900999992014011905004-24730+153208FM-12+009999999V0200901N0041199999999040000199+02851+99999100641ADDGA1021+006001081GA2991+999991031GE19MSL   +99999+99999GF104991021990006001991991MA1999990099501MW1021REMSYN004BUFR
0187943900999992014011920004-24717+153200FM-12+010199999V0203101N002119999999N040000199+02381+02091100821ADDAY101021AY201021GA1031+999991081GE19MSL   +99999+99999GF103991031990999990991991MA1999990099681MD1310111+9999MW1031REMSYN06094390 41482 33104 10238 20209 39968 40082 53011 70300 83100=
0214943900999992014011923004-24717+153200FM-12+010199999V0203101N002119999999N040000199+02671+02151100911ADDAA124000091AY101021AY201021GA1031+999991081GE19MSL   +99999+99999GF103991031990999990991991MA1999990099771MD1210121+9999MW1021REMSYN07694390 11482 33104 10267 20215 39977 40091 52012 60004 70200 83100 333 70000=
0204943900999992014012005004-24717+153200FM-12+010199999V0203401N004119999999N040000199+02811+02071100751ADDAA106000091AY101021AY201021GA1011+999991081GE19MSL   +99999+99999GF101991011990999990991991MA1999990099611MD1610121+9999MW1011REMSYN06694390 11582 13408 10281 20207 39961 40075 56012 60001 70100 81100=
0187943900999992014012020004-24717+153200FM-12+010199999V0203101N005119999999N050000199+02491+02101100971ADDAY101021AY201021GA1021+999991081GE19MSL   +99999+99999GF102991021990999990991991MA1999990099831MD1310181+9999MW1011REMSYN06094390 41484 23110 10249 20210 39983 40097 53018 70100 82100=
0131943900999992014012023004-24730+153208FM-12+009999999V0203201N0051199999999050000199+02871+02111101101ADDAY101990AY201990GA1021+006001081GE19MSL   +99999+99999GF102991021990006001991991MA1999990099951MD1110101+9999MW1011REMSYN004BUFR
0204943900999992014012105004-24717+153200FM-12+010199999V0203601N002619999999N050000199+02831+02131100881ADDAA106000091AY101021AY201021GA1021+999991081GE19MSL   +99999+99999GF102991021990999990991991MA1999990099741MD1710161+9999MW1021REMSYN06694390 11/84 23605 10283 20213 39974 40088 57016 60001 70200 82100=
0187943900999992014012120004-24717+153200FM-12+010199999V0203401N005119999999N050000199+02551+02141101141ADDAY101021AY201021GA1021+999991081GE19MSL   +99999+99999GF102991021990999990991991MA1999990100001MD1310101+9999MW1011REMSYN06094390 41484 23410 10255 20214 30000 40114 53010 70100 82100=
0214943900999992014012123004-24717+153200FM-12+010199999V0203201N005119999999N050000199+02891+02111101261ADDAA124000091AY101021AY201021GA1011+999991081GE19MSL   +99999+99999GF101991011990999990991991MA1999990100111MD1210121+9999MW1011REMSYN07694390 01584 13210 10289 20211 30011 40126 52012 60004 70100 81100 333 70000=
0134943900999992014012205004-24717+153200FM-12+010199999V0203601N004119999999N050000199+02861+02151101091ADDAA106000091AY101021AY201021MA1999990099951MD1710141+9999MW1011REMSYN06094390 11984 03608 10286 20215 39995 40109 57014 60001 70100=
0187943900999992014012220004-24717+153200FM-12+010199999V0200901N002619999999N050000199+02481+02091101441ADDAY101021AY201021GA1021+999991081GE19MSL   +99999+99999GF102991021990999990991991MA1999990100291MD1310081+9999MW1011REMSYN06094390 41484 20905 10248 20209 30029 40144 53008 70100 82100=
0214943900999992014012223004-24717+153200FM-12+010199999V0200701N002619999999N050000199+02781+02091101541ADDAA124000091AY101021AY201021GA1031+999991081GE19MSL   +99999+99999GF103991031990999990991991MA1999990100391MD1210111+9999MW1031REMSYN07694390 01584 30705 10278 20209 30039 40154 52011 60004 70300 83200 333 70000=
0220943900999992014012305004-24717+153200FM-12+010199999V0200501N005119999999N045000199+02761+02031101371ADDAA106000091AY101021AY201021GA1991+999991031GA2031+999991081GE19MSL   +99999+99999GF103991990990999990991991MA1999990100221MD1810081+9999MW1011REMSYN06694390 11583 30510 10276 20203 30022 40137 58008 60001 70100 83230=
0147943900999992014012320004-24730+153208FM-12+009999999V0200901N0026199999999040000199+02441+02091101221ADDAY121990AY221990GA1041+003001061GA2991+999991031GE19MSL   +99999+99999GF106991041990003001991991MA1999990100071MD1310051+9999MW1031REMSYN004BUFR
0158943900999992014012323004-24730+153208FM-12+009999999V0200701N0077199999999040000199+02761+02051101261ADDAA124999990AY121990AY221990GA1041+003001081GA2991+999991031GE19MSL   +99999+99999GF105991041990003001991991MA1999990100111MD1010041+9999MW1021REMSYN004BUFR
0220943900999992014012405004-24717+153200FM-12+010199999V0200701N007719999999N040000199+02711+01991100981ADDAA106000091AY121021AY221021GA1991+999991031GA2031+999991081GE19MSL   +99999+99999GF105991990990999990991991MA1999990099841MD1810151+9999MW1021REMSYN06694390 11582 50715 10271 20199 39984 40098 58015 60001 70222 83260=
0147943900999992014012420004-24730+153208FM-12+009999999V0200501N0026199999999040000199+02371+02131100721ADDAY101990AY201990GA1031+002001081GA2991+999991001GE19MSL   +99999+99999GF103991031990002001991991MA1999990099581MD1510101+9999MW1021REMSYN004BUFR
0230943900999992014012423004-24717+153200FM-12+010199999V0203601N002619999999N040000199+02731+02231100891ADDAA124000091AY111021AY211021GA1991+999991031GA2021+999991081GE19MSL   +99999+99999GF104991990990999990991991MA1999990099751MD1900071+9999MW1011REMSYN07694390 01482 43605 10273 20223 39975 40089 50007 60004 70111 82230 333 70000=
0220943900999992014012505004-24717+153200FM-12+010199999V0209999C000019999999N030000199+02761+01951100801ADDAA106000091AY111021AY211021GA1991+999991031GA2011+999991081GE19MSL   +99999+99999GF107991990990999990991991MA1999990099661MD1610101+9999MW1021REMSYN06694390 11580 70000 10276 20195 39966 40080 56010 60001 70211 8117/=
0147943900999992014012520004-24730+153208FM-12+009999999V0201101N0113100300199010000199+02361+01771101221ADDAY181990AY281990GA1051+003001081GA2991+999991031GE19MSL   +99999+99999GF107991051990003001991991MA1999990100071MD1310121+9999MW1161REMSYN004BUFR
0239943900999992014012605004-24717+153200FM-12+010199999V0201101N009319999999N010000199+02451+01671101371ADDAA106999939AY121021AY221021GA1991+999991031GA2051+999991081GE19MSL   +99999+99999GF108991990990999990991991MA1999990100231MD1610041+9999MW1251REMSYN06694390 11460 81118 10245 20167 30023 40137 56004 69891 72522 85270=EQDQ01  98902PRCP06
0203943900999992014012620004-24717+153200FM-12+010199999V0201101N009319999999N015000199+02361+01681101411ADDAY121021AY221021GA1991+999991031GA2021+999991081GE19MSL   +99999+99999GF107991990990999990991991MA1999990100261MD1310031+9999MW1151REMSYN06094390 41465 71118 10236 20168 30026 40141 53003 71522 82170=
0241943900999992014012623004-24717+153200FM-12+010199999V0201101N009319999999N015000199+02401+01691101581ADDAA100005031AA224999919AY121021AY221021GA1991+999991031GA2051+999991061GE19MSL   +99999+99999GF108991990990999990991991MA1999990100431MD1110161+9999MW1151REMSYN07694390 01465 81118 10240 20169 30043 40158 51016 60050 71522 85470 333 7////=
0239943900999992014012705004-24717+153200FM-12+010199999V0201301N007719999999N015000199+02291+02081101461ADDAA112999939AY121021AY221021GA1991+999991031GA2061+999991061GE19MSL   +99999+99999GF108991990990999990991991MA1999990100311MD1710121+9999MW1251REMSYN06694390 11465 81315 10229 20208 30031 40146 57012 69892 72522 86570=EQDQ01  98902PRCP12
0203943900999992014012720004-24717+153200FM-12+010199999V0201101N007719999999N025000199+02391+01581101371ADDAY181021AY221021GA1991+999991031GA2021+999991081GE19MSL   +99999+99999GF106991990990999990991991MA1999990100231MD1210031+9999MW1151REMSYN06094390 41475 61115 10239 20158 30023 40137 52003 71582 82130=
0230943900999992014012723004-24717+153200FM-12+010199999V0201101N007719999999N015000199+02631+01721101481ADDAA124000091AY121021AY221021GA1991+999991031GA2021+999991061GE19MSL   +99999+99999GF105991990990999990991991MA1999990100331MD1210111+9999MW1011REMSYN07694390 01465 51115 10263 20172 30033 40148 52011 60004 70122 82530 333 70000=
0220943900999992014012805004-24717+153200FM-12+010199999V0200901N009319999999N020000199+02651+01781101301ADDAA106000091AY121021AY221021GA1991+999991031GA2041+999991081GE19MSL   +99999+99999GF105991990990999990991991MA1999990100151MD1710181+9999MW1031REMSYN06694390 11570 50918 10265 20178 30015 40130 57018 60001 70322 84230=
0187943900999992014012820004-24717+153200FM-12+010199999V0201101N007719999999N030000199+02361+01821101171ADDAY121021AY221021GA1071+999991061GE19MSL   +99999+99999GF107991071990999990991991MA1999990100031MD1310041+9999MW1031REMSYN06094390 41480 71115 10236 20182 30003 40117 53004 70322 87400=
0142943900999992014012823004-24730+153208FM-12+009999999V0201101N0077100000199020000199+02691+02091101291ADDAA124999990AY121990AY221990GA1071+000001061GE19MSL   +99999+99999GF107991071990000001991991MA1999990100141MD1210061+9999MW1151REMSYN004BUFR
0147943900999992014012905004-24730+153208FM-12+009999999V0201101N0077199999999030000199+02771+01741101131ADDAY181990AY221990GA1021+006001081GA2991+999991031GE19MSL   +99999+99999GF106991021990006001991991MA1999990099991MD1810101+9999MW1021REMSYN004BUFR
0203943900999992014012920004-24717+153200FM-12+010199999V0200901N007719999999N020000199+02281+01701101121ADDAY181021AY221021GA1991+999991031GA2061+999991081GE19MSL   +99999+99999GF107991990990999990991991MA1999990099981MD1310051+9999MW1151REMSYN06094390 41470 70915 10228 20170 39998 40112 53005 71582 86830=
0249943900999992014012923004-24717+153200FM-12+010199999V0200701N009319999999N040000199+02541+01691101341ADDAA124000091AY181021AY221021GA1061+999991081GE19MSL   +99999+99999GF106991061990999990991991MA1999990100191MD1210211+9999MW1151REMSYN07694390 01582 60718 10254 20169 30019 40134 52021 69904 71582 86800 333 79999=EQDQ01  00002PRCP24Q02  00002PRCP24
0220943900999992014013005004-24717+153200FM-12+010199999V0200901N009319999999N030000199+02651+01671101171ADDAA106000091AY121021AY221021GA1991+999991031GA2021+999991081GE19MSL   +99999+99999GF107991990990999990991991MA1999990100021MD1710151+9999MW1021REMSYN06694390 11580 70918 10265 20167 30002 40117 57015 60001 70222 82230=
0147943900999992014013020004-24730+153208FM-12+009999999V0200901N0077199999999020000199+02341+01901100941ADDAY101990AY201990GA1041+003001061GA2991+999991031GE19MSL   +99999+99999GF108991041990003001991991MA1999990099801MD1310021+9999MW1161REMSYN004BUFR
0249943900999992014013023004-24717+153200FM-12+010199999V0200701N009319999999N020000199+02471+01911101091ADDAA124999999AY121021AY221021GA1991+999991041GA2011+999991081GE19MSL   +99999+99999GF108991990990999990991991MA1999990099941MD1210141+9999MW1601REMSYN07694390 01470 80718 10247 20191 39994 40109 52014 60004 76022 81110 333 70000=EQDQ01  00002PRCP24
0220943900999992014013105004-24717+153200FM-12+010199999V0200701N007719999999N015000199+02121+01951101171ADDAA100002031AY161021AY261021GA1991+999991051GA2011+999991071GE19MSL   +99999+99999GF108991990990999990991991MA1999990100021MD1710101+9999MW1601REMSYN06694390 41465 80715 10212 20195 30002 40117 57010 60020 76066 8172/=
0203943900999992014013120004-24717+153200FM-12+010199999V0200501N007719999999N030000199+02321+02081100831ADDAY161021AY261021GA1991+999991031GA2021+999991081GE19MSL   +99999+99999GF107991990990999990991991MA1999990099691MD1510011+9999MW1151REMSYN06094390 41380 70515 10232 20208 39969 40083 55001 71566 8217/=
0241943900999992014013123004-24717+153200FM-12+010199999V0200501N007719999999N030000199+02381+02091100941ADDAA100010031AA224999919AY161021AY221021GA1991+999991031GA2041+999991081GE19MSL   +99999+99999GF108991990990999990991991MA1999990099801MD1110121+9999MW1151REMSYN07694390 01480 80515 10238 20209 39980 40094 51012 60100 71562 8427/ 333 7////=
0220943900999992014020105004-24717+153200FM-12+010199999V0200501N007719999999N030000199+02581+01981100801ADDAA106000091AY121021AY221021GA1991+999991031GA2051+999991081GE19MSL   +99999+99999GF107991990990999990991991MA1999990099661MD1610101+9999MW1031REMSYN06694390 11580 70515 10258 20198 39966 40080 56010 60001 70322 8527/=
0203943900999992014020120004-24717+153200FM-12+010199999V0200501N006219999999N040000199+02301+01721100951ADDAY101021AY201021GA1991+999991001GA2021+999991081GE19MSL   +99999+99999GF104991990990999990991991MA1999990099811MD1310071+9999MW1021REMSYN06094390 41482 40512 10230 20172 39981 40095 53007 70200 82201=
0230943900999992014020123004-24717+153200FM-12+010199999V0200701N006219999999N040000199+02761+01691101121ADDAA124000091AY101021AY201021GA1991+999991001GA2041+999991061GE19MSL   +99999+99999GF104991990990999990991991MA1999990099971MD1210151+9999MW1031REMSYN07694390 01582 40712 10276 20169 39997 40112 52015 60004 70300 84401 333 70000=
0220943900999992014020205004-24717+153200FM-12+010199999V0201101N009319999999N040000199+02731+01881100941ADDAA106000091AY101021AY201021GA1991+999991001GA2021+999991081GE19MSL   +99999+99999GF103991990990999990991991MA1999990099801MD1810151+9999MW1031REMSYN06694390 11582 31118 10273 20188 39980 40094 58015 60001 70300 82201=
0131943900999992014020220004-24730+153208FM-12+009999999V0200901N0062199999999040000199+02311+01601100921ADDAY101990AY201990GA1011+006001081GE19MSL   +99999+99999GF101991011990006001991991MA1999990099781MD1310081+9999MW1021REMSYN004BUFR
0158943900999992014020223004-24730+153208FM-12+009999999V0200701N0062100600199040000199+02571+01871101031ADDAA124999990AY151990AY211990GA1051+006001061GA2991+999991031GE19MSL   +99999+99999GF105991051990006001991991MA1999990099881MD1210111+9999MW1151REMSYN004BUFR
0131943900999992014020305004-24730+153208FM-12+009999999V0201101N0051100300199040000199+02401+02051100951ADDAY111990AY211990GA1061+003001081GE19MSL   +99999+99999GF106991061990003001991991MA1999990099811MD1710111+9999MW1251REMSYN004BUFR
0203943900999992014020320004-24717+153200FM-12+010199999V0200701N006219999999N040000199+02341+01781100921ADDAY111021AY211021GA1991+999991031GA2031+999991081GE19MSL   +99999+99999GF104991990990999990991991MA1999990099781MD1310041+9999MW1021REMSYN06094390 41482 40712 10234 20178 39978 40092 53004 70211 83230=
0230943900999992014020323004-24717+153200FM-12+010199999V0201101N009319999999N040000199+02761+01821101031ADDAA124000091AY111021AY211021GA1991+999991031GA2031+999991061GE19MSL   +99999+99999GF104991990990999990991991MA1999990099881MD1110101+9999MW1011REMSYN07694390 01582 41118 10276 20182 39988 40103 51010 60004 70111 83430 333 70000=
0220943900999992014020405004-24717+153200FM-12+010199999V0200901N007719999999N040000199+02731+01881100951ADDAA106000091AY101021AY201021GA1991+999991031GA2031+999991081GE19MSL   +99999+99999GF103991990990999990991991MA1999990099811MD1710101+9999MW1021REMSYN06694390 11582 30915 10273 20188 39981 40095 57010 60001 70200 83230=
0203943900999992014020420004-24717+153200FM-12+010199999V0201101N005119999999N040000199+02341+01711101161ADDAY101021AY201021GA1991+999991031GA2031+999991081GE19MSL   +99999+99999GF103991990990999990991991MA1999990100011MD1310121+9999MW1021REMSYN06094390 41482 31110 10234 20171 30001 40116 53012 70200 83230=
0214943900999992014020423004-24717+153200FM-12+010199999V0201401N006219999999N040000199+02611+02391101161ADDAA124000091AY101021AY201021GA1021+999991081GE19MSL   +99999+99999GF102991021990999990991991MA1999990100011MD1210111+9999MW1011REMSYN07694390 01482 21412 10261 20239 30001 40116 52011 60004 70100 82100 333 70000=
0204943900999992014020505004-24717+153200FM-12+010199999V0201101N010319999999N040000199+02731+01691101101ADDAA106000091AY101021AY201021GA1021+999991081GE19MSL   +99999+99999GF102991021990999990991991MA1999990099951MD1710131+9999MW1021REMSYN06694390 11582 21120 10273 20169 39995 40110 57013 60001 70200 82100=
0163943900999992014020520004-24730+153208FM-12+009999999V0201401N0026199999999040000199+02261+01661101111ADDAY121990AY221990GA1021+003001081GA2991+999991001GA3991+999991031GE19MSL   +99999+99999GF105991021990003001991991MA1999990099961MD1510011+9999MW1021REMSYN004BUFR
0220943900999992014022405004-24717+153200FM-12+010199999V0201101N007719999999N040000199+02751+01771101271ADDAA106011031AY111021AY211021GA1991+999991031GA2041+999991081GE19MSL   +99999+99999GF104991990990999990991991MA1999990100121MD1710131+9999MW1151REMSYN06694390 11582 41115 10275 20177 30012 40127 57013 60111 71511 84230=
0131943900999992014022420004-24730+153208FM-12+009999999V0200901N0062199999999040000199+02291+01851101321ADDAY111990AY211990GA1041+003001061GE19MSL   +99999+99999GF104991041990003001991991MA1999990100171MD1310081+9999MW1151REMSYN004BUFR
0230943900999992014022423004-24717+153200FM-12+010199999V0201101N005119999999N050000199+02461+01771101411ADDAA124011031AY181021AY211021GA1991+999991031GA2041+999991061GE19MSL   +99999+99999GF105991990990999990991991MA1999990100261MD1210091+9999MW1251REMSYN07694390 01484 51110 10246 20177 30026 40141 52009 60114 72581 84460 333 70110=
0204943900999992014022505004-24717+153200FM-12+010199999V0201101N007719999999N040000199+02621+01851101141ADDAA106000091AY101021AY201021GA1041+999991061GE19MSL   +99999+99999GF104991041990999990991991MA1999990099991MD1710171+9999MW1011REMSYN06694390 11582 41115 10262 20185 39999 40114 57017 60001 70100 84400=
0203943900999992014022520004-24717+153200FM-12+010199999V0200701N004119999999N040000199+02281+01571101281ADDAY181021AY211021GA1991+999991031GA2011+999991081GE19MSL   +99999+99999GF102991990990999990991991MA1999990100131MD1210061+9999MW1021REMSYN06094390 41582 20708 10228 20157 30013 40128 52006 70281 81130=
0214943900999992014022523004-24717+153200FM-12+010199999V0200701N005119999999N050000199+02711+01531101411ADDAA124001031AY101021AY201021GA1021+999991081GE19MSL   +99999+99999GF102991021990999990991991MA1999990100261MD1210141+9999MW1031REMSYN07694390 01684 20710 10271 20153 30026 40141 52014 60014 70300 82200 333 70010=
0204943900999992014022605004-24717+153200FM-12+010199999V0201101N006219999999N050000199+02671+01711101191ADDAA106000091AY101021AY201021GA1041+999991081GE19MSL   +99999+99999GF104991041990999990991991MA1999990100041MD1710161+9999MW1011REMSYN06694390 11584 41112 10267 20171 30004 40119 57016 60001 70100 84200=
0131943900999992014022620004-24730+153208FM-12+009999999V0200501N0021199999999040000199+02311+01751101321ADDAY101990AY201990GA1031+003001061GE19MSL   +99999+99999GF103991031990003001991991MA1999990100171MD1310131+9999MW1021REMSYN004BUFR
0230943900999992014022623004-24717+153200FM-12+010199999V0200901N006219999999N040000199+02721+01701101461ADDAA124000091AY101021AY201021GA1991+999991031GA2021+999991081GE19MSL   +99999+99999GF103991990990999990991991MA1999990100311MD1210151+9999MW1011REMSYN07694390 01682 30912 10272 20170 30031 40146 52015 60004 70100 82230 333 70000=
0204943900999992014022705004-24717+153200FM-12+010199999V0201101N004119999999N040000199+02801+01621101231ADDAA106000091AY101021AY201021GA1041+999991081GE19MSL   +99999+99999GF104991041990999990991991MA1999990100081MD1710191+9999MW1011REMSYN06694390 11682 41108 10280 20162 30008 40123 57019 60001 70100 84200=
0203943900999992014022720004-24717+153200FM-12+010199999V0200701N005119999999N040000199+02411+01701101361ADDAY101021AY201021GA1991+999991031GA2011+999991081GE19MSL   +99999+99999GF104991990990999990991991MA1999990100211MD1310071+9999MW1021REMSYN06094390 41582 40710 10241 20170 30021 40136 53007 70200 81130=
0158943900999992014022723004-24730+153208FM-12+009999999V0200701N0062199999999040000199+02661+01621101531ADDAA124999990AY111990AY211990GA1011+006001081GA2991+999991031GE19MSL   +99999+99999GF106991011990006001991991MA1999990100381MD1110141+9999MW1031REMSYN004BUFR
0204943900999992014022805004-24717+153200FM-12+010199999V0201101N007719999999N040000199+02671+01661101281ADDAA106000091AY111021AY211021GA1021+999991081GE19MSL   +99999+99999GF102991021990999990991991MA1999990100131MD1810151+9999MW1011REMSYN06694390 11582 21115 10267 20166 30013 40128 58015 60001 70111 82100=
0147943900999992014022820004-24730+153208FM-12+009999999V0201101N0051199999999040000199+02321+01861101241ADDAY121990AY221990GA1031+003001061GA2991+999991031GE19MSL   +99999+99999GF105991031990003001991991MA1999990100091MD1510031+9999MW1151REMSYN004BUFR
0230943900999992014022823004-24717+153200FM-12+010199999V0201101N006219999999N040000199+02431+01851101371ADDAA124000431AY121021AY221021GA1991+999991031GA2051+999991061GE19MSL   +99999+99999GF106991990990999990991991MA1999990100221MD1210121+9999MW1251REMSYN07694390 01582 61112 10243 20185 30022 40137 52012 69944 72522 85430 333 70004=
0147943900999992014030105004-24730+153208FM-12+009999999V0201101N0077199999999050000199+02751+01681101131ADDAY111990AY211990GA1031+006001081GA2991+999991031GE19MSL   +99999+99999GF103991031990006001991991MA1999990099981MD1710191+9999MW1011REMSYN004BUFR
0203943900999992014030120004-24717+153200FM-12+010199999V0200901N002619999999N040000199+02361+01801101221ADDAY121021AY221021GA1991+999991031GA2011+999991081GE19MSL   +99999+99999GF106991990990999990991991MA1999990100071MD1310051+9999MW1021REMSYN06094390 41482 60905 10236 20180 30007 40122 53005 70222 81130=
0230943900999992014030123004-24717+153200FM-12+010199999V0200901N005119999999N040000199+02681+01991101401ADDAA124000091AY111021AY211021GA1991+999991031GA2021+999991091GE19MSL   +99999+99999GF104991990990999990991991MA1999990100251MD1210191+9999MW1011REMSYN07694390 01582 40910 10268 20199 30025 40140 52019 60004 70111 8233/ 333 70000=
0147943900999992014030205004-24730+153208FM-12+009999999V0200901N0062100600199040000199+02671+02051101281ADDAY121990AY221990GA1061+006001081GA2991+999991031GE19MSL   +99999+99999GF106991061990006001991991MA1999990100131MD1710151+9999MW1151REMSYN004BUFR
0187943900999992014030220004-24717+153200FM-12+010199999V0200701N006219999999N040000199+02411+01791101561ADDAY181021AY221021GA1061+999991061GE19MSL   +99999+99999GF106991061990999990991991MA1999990100411MD1310101+9999MW1031REMSYN06094390 41582 60712 10241 20179 30041 40156 53010 70382 86400=
0214943900999992014030223004-24717+153200FM-12+010199999V0200901N008219999999N040000199+02721+01811101761ADDAA124000231AY111021AY211021GA1031+999991081GE19MSL   +99999+99999GF103991031990999990991991MA1999990100601MD1210191+9999MW1011REMSYN07694390 01582 30916 10272 20181 30060 40176 52019 69924 70111 83100 333 70002=
0147943900999992014030305004-24730+153208FM-12+009999999V0201101N0062100600199040000199+02691+01951101621ADDAY181990AY211990GA1051+006001081GA2991+999991031GE19MSL   +99999+99999GF106991051990006001991991MA1999990100461MD1710131+9999MW1151REMSYN004BUFR
0187943900999992014030320004-24717+153200FM-12+010199999V0201101N007719999999N040000199+02351+01591101821ADDAY121021AY221021GA1071+999991081GE19MSL   +99999+99999GF107991071990999990991991MA1999990100661MD1310041+9999MW1151REMSYN06094390 41582 71115 10235 20159 30066 40182 53004 71522 878//=
0230943900999992014030323004-24717+153200FM-12+010199999V0201101N010319999999N040000199+02561+01691101941ADDAA124000831AY121021AY221021GA1991+999991031GA2021+999991081GE19MSL   +99999+99999GF105991990990999990991991MA1999990100781MD1110131+9999MW1011REMSYN07694390 01582 51120 10256 20169 30078 40194 51013 69984 70122 82230 333 70008=
0203943900999992014030420004-24717+153200FM-12+010199999V0201101N002619999999N040000199+02261+01691101631ADDAY121021AY221021GA1991+999991031GA2021+999991081GE19MSL   +99999+99999GF106991990990999990991991MA1999990100471MD1310021+9999MW1031REMSYN06094390 41482 61105 10226 20169 30047 40163 53002 70322 82130=
0230943900999992014030423004-24717+153200FM-12+010199999V0200901N005119999999N040000199+02431+01791101711ADDAA124000091AY121021AY221021GA1991+999991031GA2021+999991081GE19MSL   +99999+99999GF105991990990999990991991MA1999990100551MD1210071+9999MW1151REMSYN07694390 01582 50910 10243 20179 30055 40171 52007 60004 71522 82230 333 70000=
0220943900999992014030505004-24717+153200FM-12+010199999V0200901N005119999999N050000199+02621+01611101451ADDAA106000091AY111021AY211021GA1991+999991031GA2021+999991081GE19MSL   +99999+99999GF104991990990999990991991MA1999990100301MD1710151+9999MW1151REMSYN06694390 11584 40910 10262 20161 30030 40145 57015 60001 71511 82130=
0131943900999992014030520004-24730+153208FM-12+009999999V0201101N0041199999999040000199+02271+01741101431ADDAY101990AY201990GA1041+003001061GE19MSL   +99999+99999GF104991041990003001991991MA1999990100281MD1310051+9999MW1021REMSYN004BUFR
0230943900999992014030523004-24717+153200FM-12+010199999V0200901N005119999999N040000199+02531+01851101591ADDAA124000231AY101021AY201021GA1991+999991031GA2041+999991061GE19MSL   +99999+99999GF104991990990999990991991MA1999990100431MD1210151+9999MW1251REMSYN07694390 01582 40910 10253 20185 30043 40159 52015 69924 72500 84430 333 70002=
0147943900999992014030605004-24730+153208FM-12+009999999V0200701N0077199999999040000199+02641+01661101451ADDAY181990AY211990GA1021+006001061GA2991+999991031GE19MSL   +99999+99999GF106991021990006001991991MA1999990100301MD1810131+9999MW1151REMSYN004BUFR
0163943900999992014030620004-24730+153208FM-12+009999999V0200701N0041199999999040000199+02341+01761101531ADDAY101990AY201990GA1041+003001081GA2991+999991001GA3991+999991031GE19MSL   +99999+99999GF105991041990003001991991MA1999990100381MD1310091+9999MW1031REMSYN004BUFR
0246943900999992014030623004-24717+153200FM-12+010199999V0200701N007719999999N050000199+02661+01621101711ADDAA124000231AY101021AY201021GA1021+999991081GA2991+999991001GA3991+999991031GE19MSL   +99999+99999GF104991021990999990991991MA1999990100551MD1210161+9999MW1011REMSYN07694390 01584 40715 10266 20162 30055 40171 52016 69924 70100 82131 333 70002=
0147943900999992014030705004-24730+153208FM-12+009999999V0200901N0077199999999040000199+02581+01821101561ADDAY181990AY221990GA1011+006001081GA2991+999991041GE19MSL   +99999+99999GF107991011990006001991991MA1999990100411MD1710141+9999MW1031REMSYN004BUFR
0203943900999992014030720004-24717+153200FM-12+010199999V0201101N006219999999N040000199+02301+01811101521ADDAY121021AY221021GA1991+999991001GA2031+999991081GE19MSL   +99999+99999GF107991990990999990991991MA1999990100371MD1510001+9999MW1031REMSYN06094390 41482 71112 10230 20181 30037 40152 55000 70322 83201=
0246943900999992014030723004-24717+153200FM-12+010199999V0200901N007719999999N035000199+02531+01851101671ADDAA124000431AY181021AY221021GA1021+999991081GA2991+999991001GA3991+999991031GE19MSL   +99999+99999GF106991021990999990991991MA1999990100511MD1310151+9999MW1151REMSYN07694390 01581 60915 10253 20185 30051 40167 53015 69944 71582 82291 333 70004=
0236943900999992014030805004-24717+153200FM-12+010199999V0200901N010319999999N030000199+02691+01751101501ADDAA106000091AY121021AY221021GA1021+999991081GA2991+999991001GA3991+999991031GE19MSL   +99999+99999GF105991021990999990991991MA1999990100351MD1510111+9999MW1151REMSYN06694390 11580 50920 10269 20175 30035 40150 55011 60001 71522 82291=
0147943900999992014030820004-24730+153208FM-12+009999999V0200901N0077199999999030000199+02331+01751101461ADDAY181990AY221990GA1011+003001081GA2991+999991001GE19MSL   +99999+99999GF106991011990003001991991MA1999990100311MD1310021+9999MW1031REMSYN004BUFR
0174943900999992014030823004-24730+153208FM-12+009999999V0200901N0077199999999025000199+02541+01901101611ADDAA124002231AY121990AY221990GA1021+006001081GA2991+999991001GA3991+999991031GE19MSL   +99999+99999GF106991021990006001991991MA1999990100451MD1110151+9999MW1031REMSYN004BUFR
0147943900999992014030905004-24730+153208FM-12+009999999V0200901N0077100300199030000199+02481+01971101401ADDAY181990AY221990GA1051+003001081GA2991+999991031GE19MSL   +99999+99999GF108991051990003001991991MA1999990100251MD1810061+9999MW1151REMSYN004BUFR
0147943900999992014030920004-24730+153208FM-12+009999999V0200901N0077199999999020000199+02221+02081101411ADDAY181990AY221990GA1021+001001081GA2991+999991031GE19MSL   +99999+99999GF108991021990001001991991MA1999990100261MD1310051+9999MW1151REMSYN004BUFR
0241943900999992014030923004-24717+153200FM-12+010199999V0201101N007719999999N030000199+02401+02081101551ADDAA124015032AA224015432AY121021AY221021GA1991+999991031GA2021+999991081GE19MSL   +99999+99999GF108991990990999990991991MA1999990100401MD1310141+9999MW1151REMSYN07694390 01480 81115 10240 20208 30040 40155 53014 60154 71522 8227/ 333 70154=
0220943900999992014031005004-24717+153200FM-12+010199999V0200701N007719999999N030000199+02121+02091101421ADDAA106015031AY161021AY261021GA1991+999991051GA2021+999991071GE19MSL   +99999+99999GF108991990990999990991991MA1999990100271MD1710171+9999MW1601REMSYN06694390 11280 80715 10212 20209 30027 40142 57017 60151 76066 8272/=
0163943900999992014031020004-24730+153208FM-12+009999999V0201101N0093199999999020000199+02291+01831101491ADDAY181990AY261990GA1031+003001081GA2991+999991001GA3991+999991031GE19MSL   +99999+99999GF107991031990003001991991MA1999990100341MD1210051+9999MW1151REMSYN004BUFR
0158943900999992014031023004-24730+153208FM-12+009999999V0201101N0093199999999030000199+02551+01771101621ADDAA124020231AY121990AY221990GA1031+006001081GA2991+999991001GE19MSL   +99999+99999GF106991031990006001991991MA1999990100461MD1210131+9999MW1011REMSYN004BUFR
0220943900999992014031905004-24717+153200FM-12+010199999V0200701N009319999999N025000199+02691+01931101671ADDAA100000731AY111021AY211021GA1991+999991031GA2051+999991061GE19MSL   +99999+99999GF106991990990999990991991MA1999990100521MD1610211+9999MW1031REMSYN06694390 11575 60718 10269 20193 30052 40167 56021 69970 70311 85550=
0219943900999992014031920004-24717+153200FM-12+010199999V0200901N007219999999N018000199+02401+01731101741ADDAY121021AY221021GA1031+999991081GA2991+999991001GA3991+999991031GE19MSL   +99999+99999GF106991031990999990991991MA1999990100591MD1310081+9999MW1021REMSYN06094390 41468 60914 10240 20173 30059 40174 53008 70222 83832=
0257943900999992014031923004-24717+153200FM-12+010199999V0200701N007219999999N020000199+02541+01721101841ADDAA100000731AA224999919AY121021AY221021GA1031+999991061GA2991+999991001GA3991+999991031GE19MSL   +99999+99999GF107991031990999990991991MA1999990100691MD1900101+9999MW1031REMSYN07694390 11570 70714 10254 20172 30069 40184 50010 69970 70322 83531 333 7////=
0236943900999992014032005004-24717+153200FM-12+010199999V0200901N010319999999N025000199+02711+01801101631ADDAA106000091AY111021AY211021GA1021+999991061GA2991+999991001GA3991+999991031GE19MSL   +99999+99999GF104991021990999990991991MA1999990100481MD1710151+9999MW1011REMSYN06694390 11575 40920 10271 20180 30048 40163 57015 60001 70111 82531=
0203943900999992014032020004-24717+153200FM-12+010199999V0200701N006219999999N018000199+02361+01791101541ADDAY181021AY221021GA1991+999991031GA2021+999991061GE19MSL   +99999+99999GF107991990990999990991991MA1999990100391MD1510151+9999MW1021REMSYN06094390 41468 70712 10236 20179 30039 40154 55015 70282 82550=
0230943900999992014032023004-24717+153200FM-12+010199999V0200901N006219999999N028000199+02611+01841101691ADDAA124000831AY121021AY221021GA1991+999991031GA2041+999991081GE19MSL   +99999+99999GF107991990990999990991991MA1999990100541MD1900151+9999MW1021REMSYN07694390 11478 70912 10261 20184 30054 40169 50015 69984 70222 84860 333 70008=
0236943900999992014032105004-24717+153200FM-12+010199999V0200901N007719999999N030000199+02651+01851101481ADDAA106000091AY121021AY221021GA1021+999991061GA2991+999991001GA3991+999991031GE19MSL   +99999+99999GF105991021990999990991991MA1999990100331MD1710151+9999MW1011REMSYN06694390 11580 50915 10265 20185 30033 40148 57015 60001 70122 82534=
0203943900999992014032120004-24717+153200FM-12+010199999V0200701N004119999999N035000199+02291+01851101461ADDAY111021AY211021GA1991+999991031GA2011+999991061GE19MSL   +99999+99999GF102991990990999990991991MA1999990100311MD1210061+9999MW1031REMSYN06094390 41481 20708 10229 20185 30031 40146 52006 70311 81550=
0214943900999992014032123004-24717+153200FM-12+010199999V0201101N006719999999N030000199+02721+01901101621ADDAA124000091AY101021AY201021GA1011+999991081GE19MSL   +99999+99999GF101991011990999990991991MA1999990100471MD1210161+9999MW1011REMSYN07694390 11580 11113 10272 20190 30047 40162 52016 60004 70100 81100 333 70000=
0220943900999992014032205004-24717+153200FM-12+010199999V0200901N002119999999N035000199+02761+01911101411ADDAA106000091AY101021AY201021GA1991+999991021GA2011+999991081GE19MSL   +99999+99999GF101991990990999990991991MA1999990100261MD1710121+9999MW1021REMSYN06694390 11581 10904 10276 20191 30026 40141 57012 60001 70200 81108=
0187943900999992014032220004-24717+153200FM-12+010199999V0200901N003619999999N030000199+02301+02021101491ADDAY101021AY201021GA1021+999991081GE19MSL   +99999+99999GF102991021990999990991991MA1999990100341MD1310081+9999MW1031REMSYN06094390 41480 20907 10230 20202 30034 40149 53008 70300 82200=
0230943900999992014032223004-24717+153200FM-12+010199999V0200701N003619999999N035000199+02781+02041101621ADDAA124000091AY111021AY211021GA1991+999991031GA2051+999991081GE19MSL   +99999+99999GF105991990990999990991991MA1999990100471MD1110131+9999MW1031REMSYN07694390 11581 50707 10278 20204 30047 40162 51013 60004 70311 85860 333 70000=
0220943900999992014032305004-24717+153200FM-12+010199999V0200901N004119999999N035000199+02561+01991101381ADDAA106000091AY121021AY221021GA1991+999991031GA2051+999991071GE19MSL   +99999+99999GF105991990990999990991991MA1999990100231MD1710141+9999MW1151REMSYN06694390 11481 50908 10256 20199 30023 40138 57014 60001 71522 85660=
0187943900999992014032320004-24717+153200FM-12+010199999V0200501N002119999999N025000199+02211+02061101431ADDAY121021AY221021GA1051+999991081GE19MSL   +99999+99999GF105991051990999990991991MA1999990100281MD1310101+9999MW1021REMSYN06094390 41575 50504 10221 20206 30028 40143 53010 70222 85800=
0230943900999992014032323004-24717+153200FM-12+010199999V0203601N007719999999N028000199+02601+01991101631ADDAA124000091AY111021AY211021GA1991+999991001GA2021+999991081GE19MSL   +99999+99999GF103991990990999990991991MA1999990100481MD1110121+9999MW1011REMSYN07694390 11578 33615 10260 20199 30048 40163 51012 60004 70111 82101 333 70000=
0236943900999992014032405004-24717+153200FM-12+010199999V0200201N006219999999N040000199+02591+01821101271ADDAA106000091AY101021AY201021GA1011+999991081GA2991+999991001GA3991+999991031GE19MSL   +99999+99999GF103991011990999990991991MA1999990100121MD1710191+9999MW1031REMSYN06694390 11582 30212 10259 20182 30012 40127 57019 60001 70300 81164=
0203943900999992014032420004-24717+153200FM-12+010199999V0200501N004619999999N030000199+02401+02031101441ADDAY111021AY211021GA1991+999991021GA2031+999991081GE19MSL   +99999+99999GF107991990990999990991991MA1999990100291MD1310121+9999MW1031REMSYN06094390 41480 70509 10240 20203 30029 40144 53012 70311 83808=
0230943900999992014032423004-24717+153200FM-12+010199999V0200501N013919999999N015000199+02571+02131101581ADDAA124000091AY121021AY221021GA1991+999991031GA2061+999991081GE19MSL   +99999+99999GF107991990990999990991991MA1999990100431MD1110141+9999MW1161REMSYN07694390 11465 70527 10257 20213 30043 40158 51014 60004 71622 86230 333 70000=
0220943900999992014032505004-24717+153200FM-12+010199999V0200201N007719999999N018000199+02531+02121101471ADDAA106000431AY181021AY221021GA1991+999991041GA2061+999991061GE19MSL   +99999+99999GF108991990990999990991991MA1999990100321MD1710091+9999MW1161REMSYN06694390 11468 80215 10253 20212 30032 40147 57009 69941 71682 86510=
0203943900999992014032520004-24717+153200FM-12+010199999V0200501N007719999999N015000199+02331+02191101491ADDAY181021AY281021GA1991+999991031GA2031+999991081GE19MSL   +99999+99999GF108991990990999990991991MA1999990100341MD1310031+9999MW1151REMSYN06094390 41465 80515 10233 20219 30034 40149 53003 71588 83130=
0241943900999992014032523004-24717+153200FM-12+010199999V0200501N008819999999N018000199+02521+02131101601ADDAA124002032AA224001632AY121021AY221021GA1991+999991031GA2031+999991061GE19MSL   +99999+99999GF108991990990999990991991MA1999990100451MD1110111+9999MW1151REMSYN07694390 11468 80517 10252 20213 30045 40160 51011 60024 71522 8359/ 333 70016=
0220943900999992014032605004-24717+153200FM-12+010199999V0200501N012419999999N010000199+02531+02251101491ADDAA106000091AY121021AY221021GA1991+999991051GA2021+999991061GE19MSL   +99999+99999GF108991990990999990991991MA1999990100341MD1610091+9999MW1161REMSYN06694390 11460 80524 10253 20225 30034 40149 56009 60001 71622 82520=
0203943900999992014032620004-24717+153200FM-12+010199999V0200501N005119999999N010000199+02361+02291101541ADDAY181021AY261021GA1991+999991031GA2021+999991061GE19MSL   +99999+99999GF107991990990999990991991MA1999990100391MD1310041+9999MW1801REMSYN06094390 41460 70510 10236 20229 30039 40154 53004 78086 82550=
0241943900999992014032623004-24717+153200FM-12+010199999V0200201N008819999999N010000199+02531+02371101681ADDAA124009032AA224008932AY121021AY221021GA1991+999991031GA2031+999991071GE19MSL   +99999+99999GF108991990990999990991991MA1999990100531MD1900131+9999MW1801REMSYN07694390 11460 80217 10253 20237 30053 40168 50013 60094 78022 8377/ 333 70089=
0220943900999992014032705004-24717+153200FM-12+010199999V0200501N006219999999N010000199+02501+02411101361ADDAA106000131AY151021AY221021GA1991+999991051GA2071+999991071GE19MSL   +99999+99999GF108991990990999990991991MA1999990100211MD1710251+9999MW1501REMSYN06694390 11460 80512 10250 20241 30021 40136 57025 69911 75052 87720=
0143943900999992014032720004-24717+153200FM-12+010199999V0202301N006719999999N000500199+02261+02221101391ADDAY191021AY261021GF108991999999999999999999MA1999990100241MD1310181+9999MW1951REMSYN05494390 41/05 82313 10226 20222 30024 40139 53018 79596=
0241943900999992014032723004-24717+153200FM-12+010199999V0200901N003619999999N005000199+02121+02121101631ADDAA124227032AA224227332AY161021AY261021GA1991+999991051GA2031+999991071GE19MSL   +99999+99999GF108991990990999990991991MA1999990100481MD1110231+9999MW1631REMSYN07694390 11450 80907 10212 20212 30048 40163 51023 62274 76366 83720 333 72273=
0220943900999992014032805004-24717+153200FM-12+010199999V0200201N004119999999N015000199+02351+02351101251ADDAA106082031AY181021AY261021GA1991+999991051GA2021+999991071GE19MSL   +99999+99999GF108991990990999990991991MA1999990100101MD1510191+9999MW1151REMSYN06694390 11465 80208 10235 20235 30010 40125 55019 60821 71586 82720=
0147943900999992014032820004-24730+153208FM-12+009999999V0203101N0015199999999015000199+02411+02381101481ADDAY111990AY211990GA1041+003001071GA2991+999991031GE19MSL   +99999+99999GF104991041990003001991991MA1999990100331MD1310121+9999MW1031REMSYN004BUFR
0246943900999992014032823004-24717+153200FM-12+010199999V0203201N001019999999N012000199+02641+02441101681ADDAA124000091AY101021AY201021GA1031+999991081GA2991+999991001GA3991+999991031GE19MSL   +99999+99999GF104991031990999990991991MA1999990100521MD1110191+9999MW1141REMSYN07694390 01462 43202 10264 20244 30052 40168 51019 60004 71400 83281 333 70000=
0220943900999992014032905004-24717+153200FM-12+010199999V0203401N000519999999N025000199+02781+02391101401ADDAA106000091AY101021AY201021GA1991+999991021GA2021+999991091GE19MSL   +99999+99999GF103991990990999990991991MA1999990100251MD1210161+9999MW1031REMSYN06694390 11475 33401 10278 20239 30025 40140 52016 60001 70300 82308=
0163943900999992014032920004-24730+153208FM-12+009999999V0200501N0021199999999015000199+02391+02321101591ADDAY101990AY201990GA1021+003001061GA2991+999991021GA3991+999991031GE19MSL   +99999+99999GF102991021990003001991991MA1999990100431MD1210071+9999MW1031REMSYN004BUFR
0230943900999992014032923004-24717+153200FM-12+010199999V0203601N003619999999N025000199+02611+02211101751ADDAA124000091AY111021AY211021GA1991+999991021GA2031+999991081GE19MSL   +99999+99999GF104991990990999990991991MA1999990100591MD1210171+9999MW1031REMSYN07694390 01575 43607 10261 20221 30059 40175 52017 60004 70311 83805 333 70000=
0236943900999992014033005004-24717+153200FM-12+010199999V0200701N005119999999N030000199+02651+02241101501ADDAA106000091AY111021AY211021GA1041+999991061GA2991+999991001GA3991+999991031GE19MSL   +99999+99999GF105991041990999990991991MA1999990100351MD1710181+9999MW1031REMSYN06694390 11580 50710 10265 20224 30035 40150 57018 60001 70311 84531=
0187943900999992014033020004-24717+153200FM-12+010199999V0201301N003119999999N015000199+02251+02141101661ADDAY181021AY201021GA1021+999991061GE19MSL   +99999+99999GF102991021990999990991991MA1999990100511MD1310071+9999MW1031REMSYN06094390 41465 21306 10225 20214 30051 40166 53007 70380 82500=
0230943900999992014033023004-24717+153200FM-12+010199999V0200901N004119999999N026000199+02681+02251101791ADDAA124000091AY151021AY201021GA1991+999991031GA2031+999991081GE19MSL   +99999+99999GF103991990990999990991991MA1999990100631MD1210121+9999MW1031REMSYN07694390 01576 30908 10268 20225 30063 40179 52012 60004 70350 83880 333 70000=
0184943900999992014033105004-24717+153200FM-12+010199999V0200901N005119999999N030000199+02721+02451101501ADDAA106999919GA1991+999991031GA2031+999991081GE19MSL   +99999+99999GF103991990990999990991991MA1999990100351MW1031REMSYN06094390 41580 30910 10272 20245 30035 40150 6///1 703// 83830=
0131943900999992014033120004-24730+153208FM-12+009999999V0200901N0031199999999012000199+02311+02161101541ADDAY101990AY201990GA1031+003001081GE19MSL   +99999+99999GF103991031990003001991991MA1999990100391MD1310051+9999MW1031REMSYN004BUFR
0142943900999992014033123004-24730+153208FM-12+009999999V0200901N0077199999999030000199+02691+02291101691ADDAA124999990AY101990AY201990GA1041+006001081GE19MSL   +99999+99999GF104991041990006001991991MA1999990100531MD1310111+9999MW1031REMSYN004BUFR
0147943900999992014040105004-24730+153208FM-12+009999999V0200901N0051100300199035000199+02731+02291101421ADDAY121990AY221990GA1051+003001081GA2991+999991001GE19MSL   +99999+99999GF105991051990003001991991MA1999990100261MD1710171+9999MW1031REMSYN004BUFR
0147943900999992014040120004-24730+153208FM-12+009999999V0201401N0041199999999020000199+02251+02021101461ADDAY101990AY201990GA1021+003001061GA2991+999991001GE19MSL   +99999+99999GF102991021990003001991991MA1999990100301MD1310081+9999MW1031REMSYN004BUFR
0142943900999992014040123004-24730+153208FM-12+009999999V0201101N0062199999999035000199+02631+02181101591ADDAA124999990AY101990AY201990GA1021+006001061GE19MSL   +99999+99999GF102991021990006001991991MA1999990100431MD1210131+9999MW1011REMSYN004BUFR
0204943900999992014040205004-24717+153200FM-12+010199999V0201101N006219999999N035000199+02641+02181101361ADDAA106000091AY101021AY201021GA1021+999991061GE19MSL   +99999+99999GF102991021990999990991991MA1999990100201MD1610161+9999MW1021REMSYN06694390 11581 21112 10264 20218 30020 40136 56016 60001 70200 82500=
0147943900999992014040220004-24730+153208FM-12+009999999V0201401N0041199999999012000199+02131+01961101451ADDAY101990AY201990GA1031+003001071GA2991+999991031GE19MSL   +99999+99999GF104991031990003001991991MA1999990100291MD1310061+9999MW1151REMSYN004BUFR
0230943900999992014040223004-24717+153200FM-12+010199999V0200901N005119999999N040000199+02601+02151101601ADDAA124000091AY111021AY211021GA1991+999991031GA2041+999991081GE19MSL   +99999+99999GF106991990990999990991991MA1999990100441MD1110151+9999MW1031REMSYN07694390 01582 60910 10260 20215 30044 40160 51015 60004 70311 84830 333 70000=
0220943900999992014040305004-24717+153200FM-12+010199999V0201101N005719999999N030000199+02601+02211101451ADDAA106003031AY161021AY211021GA1991+999991031GA2041+999991081GE19MSL   +99999+99999GF104991990990999990991991MA1999990100291MD1610041+9999MW1031REMSYN06694390 11580 41111 10260 20221 30029 40145 56004 60031 70361 84250=
0147943900999992014040320004-24730+153208FM-12+009999999V0200701N0046199999999025000199+02301+02101101551ADDAY181990AY211990GA1021+003001061GA2991+999991001GE19MSL   +99999+99999GF102991021990003001991991MA1999990100391MD1310081+9999MW1031REMSYN004BUFR
0241943900999992014040323004-24717+153200FM-12+010199999V0200901N007719999999N024000199+02651+02191101701ADDAA124004032AA224003732AY181021AY201021GA1991+999991001GA2021+999991061GE19MSL   +99999+99999GF102991990990999990991991MA1999990100541MD1210131+9999MW1151REMSYN07694390 01474 20915 10265 20219 30054 40170 52013 60044 71580 82501 333 70037=
0236943900999992014040405004-24717+153200FM-12+010199999V0200901N006219999999N018000199+02641+02241101471ADDAA106000091AY111021AY211021GA1031+999991061GA2991+999991001GA3991+999991031GE19MSL   +99999+99999GF106991031990999990991991MA1999990100311MD1610151+9999MW1151REMSYN06694390 11568 60912 10264 20224 30031 40147 56015 60001 71511 83561=
0203943900999992014040420004-24717+153200FM-12+010199999V0200701N004119999999N020000199+02281+02141101661ADDAY151021AY201021GA1991+999991031GA2021+999991061GE19MSL   +99999+99999GF102991990990999990991991MA1999990100501MD1310041+9999MW1031REMSYN06094390 41470 20708 10228 20214 30050 40166 53004 70350 82430=
0249943900999992014040423004-24717+153200FM-12+010199999V0200701N006219999999N025000199+02701+02231101761ADDAA124000091AY151021AY201021GA1021+999991081GE19MSL   +99999+99999GF102991021990999990991991MA1999990100601MD1110091+9999MW1021REMSYN07694390 11575 20712 10270 20223 30060 40176 51009 69904 70250 82200 333 79999=EQDQ01  00002PRCP24Q02  00002PRCP24
0204943900999992014040505004-24717+153200FM-12+010199999V0200501N005119999999N030000199+02691+02101101551ADDAA106000091AY101021AY201021GA1011+999991081GE19MSL   +99999+99999GF101991011990999990991991MA1999990100391MD1710161+9999MW1011REMSYN06694390 11580 10510 10269 20210 30039 40155 57016 60001 70100 81800=
0203943900999992014040520004-24717+153200FM-12+010199999V0200501N004619999999N020000199+02301+02151101611ADDAY101021AY201021GA1991+999991031GA2031+999991081GE19MSL   +99999+99999GF103991990990999990991991MA1999990100451MD1310061+9999MW1031REMSYN06094390 41470 30509 10230 20215 30045 40161 53006 70300 83830=
0230943900999992014040523004-24717+153200FM-12+010199999V0200501N003619999999N028000199+02651+02161101731ADDAA124000091AY101021AY201021GA1991+999991031GA2041+999991081GE19MSL   +99999+99999GF104991990990999990991991MA1999990100571MD1110131+9999MW1031REMSYN07694390 11578 40507 10265 20216 30057 40173 51013 60004 70300 84830 333 70000=
0220943900999992014040605004-24717+153200FM-12+010199999V0203601N004119999999N035000199+02641+02161101431ADDAA106000091AY101021AY201021GA1991+999991031GA2021+999991061GE19MSL   +99999+99999GF103991990990999990991991MA1999990100271MD1610151+9999MW1031REMSYN06694390 11581 33608 10264 20216 30027 40143 56015 60001 70300 82580=
0219943900999992014040620004-24717+153200FM-12+010199999V0201301N004619999999N025000199+02071+01941101531ADDAY161021AY201021GA1021+999991061GA2991+999991001GA3991+999991031GE19MSL   +99999+99999GF104991021990999990991991MA1999990100371MD1310061+9999MW1011REMSYN06094390 41475 41309 10207 20194 30037 40153 53006 70160 82531=
0241943900999992014040623004-24717+153200FM-12+010199999V0201301N007719999999N025000199+02581+02291101691ADDAA124004032AA224003632AY101021AY201021GA1991+999991031GA2041+999991081GE19MSL   +99999+99999GF104991990990999990991991MA1999990100531MD1310151+9999MW1151REMSYN07694390 11475 41315 10258 20229 30053 40169 53015 60044 71500 84830 333 70036=
0236943900999992014040705004-24717+153200FM-12+010199999V0201601N009319999999N030000199+02621+01961101491ADDAA106000091AY101021AY201021GA1021+999991081GA2991+999991001GA3991+999991031GE19MSL   +99999+99999GF102991021990999990991991MA1999990100331MD1510101+9999MW1011REMSYN06694390 11580 21618 10262 20196 30033 40149 55010 60001 70100 82831=
0187943900999992014040720004-24717+153200FM-12+010199999V0201301N007219999999N018000199+02201+01531101601ADDAY181021AY201021GA1011+999991061GE19MSL   +99999+99999GF101991011990999990991991MA1999990100441MD1310051+9999MW1011REMSYN06094390 41468 11314 10220 20153 30044 40160 53005 70180 81500=
0241943900999992014040723004-24717+153200FM-12+010199999V0201101N007719999999N030000199+02481+01601101731ADDAA124002032AA224001732AY101021AY201021GA1991+999991001GA2011+999991061GE19MSL   +99999+99999GF101991990990999990991991MA1999990100571MD1110151+9999MW1011REMSYN07694390 11580 11115 10248 20160 30057 40173 51015 60024 70100 81501 333 70017=
0220943900999992014040805004-24717+153200FM-12+010199999V0200901N006219999999N018000199+02421+01771101511ADDAA106000091AY111021AY211021GA1991+999991031GA2041+999991061GE19MSL   +99999+99999GF105991990990999990991991MA1999990100351MD1510131+9999MW1151REMSYN06694390 11568 50912 10242 20177 30035 40151 55013 60001 71511 84530=
0203943900999992014040820004-24717+153200FM-12+010199999V0201101N007219999999N022000199+02261+01731101611ADDAY161021AY221021GA1991+999991031GA2041+999991061GE19MSL   +99999+99999GF107991990990999990991991MA1999990100451MD1310071+9999MW1151REMSYN06094390 41572 71114 10226 20173 30045 40161 53007 71562 84570=
0241943900999992014040823004-24717+153200FM-12+010199999V0201101N006219999999N018000199+02461+01501101741ADDAA124004032AA224003932AY111021AY211021GA1991+999991031GA2021+999991061GE19MSL   +99999+99999GF102991990990999990991991MA1999990100581MD1110131+9999MW1021REMSYN07694390 11568 21112 10246 20150 30058 40174 51013 60044 70211 82550 333 70039=
0204943900999992014040905004-24717+153200FM-12+010199999V0201301N004119999999N035000199+02581+01511101481ADDAA106000091AY101021AY201021GA1021+999991061GE19MSL   +99999+99999GF102991021990999990991991MA1999990100321MD1610161+9999MW1021REMSYN06694390 11581 21308 10258 20151 30032 40148 56016 60001 70200 82500=
0203943900999992014040920004-24717+153200FM-12+010199999V0201301N004619999999N018000199+02091+01611101471ADDAY101021AY201021GA1991+999991001GA2031+999991061GE19MSL   +99999+99999GF104991990990999990991991MA1999990100311MD1310021+9999MW1151REMSYN06094390 41568 41309 10209 20161 30031 40147 53002 71500 83504=
0230943900999992014040923004-24717+153200FM-12+010199999V0201301N004119999999N020000199+02491+01701101571ADDAA124000091AY111021AY211021GA1991+999991001GA2021+999991061GE19MSL   +99999+99999GF105991990990999990991991MA1999990100411MD1210101+9999MW1151REMSYN07694390 11570 51308 10249 20170 30041 40157 52010 60004 71511 82504 333 70000=
0220943900999992014041005004-24717+153200FM-12+010199999V0200901N005119999999N020000199+02461+01931101231ADDAA106000091AY121021AY221021GA1991+999991031GA2021+999991061GE19MSL   +99999+99999GF107991990990999990991991MA1999990100081MD1710201+9999MW1031REMSYN06694390 11470 70910 10246 20193 30008 40123 57020 60001 70322 82570=
0203943900999992014041020004-24717+153200FM-12+010199999V0201101N002619999999N025000199+02041+01991101081ADDAY181021AY261021GA1991+999991031GA2021+999991061GE19MSL   +99999+99999GF107991990990999990991991MA1999990099931MD1510011+9999MW1151REMSYN06094390 41475 71105 10204 20199 39993 40108 55001 71586 82450=
0241943900999992014041023004-24717+153200FM-12+010199999V0203101N000519999999N040000199+02511+02091101221ADDAA124007032AA224006832AY111021AY211021GA1991+999991031GA2011+999991061GE19MSL   +99999+99999GF102991990990999990991991MA1999990100071MD1900141+9999MW1011REMSYN07694390 11582 23101 10251 20209 30007 40122 50014 60074 70111 81460 333 70068=
0236943900999992014041105004-24717+153200FM-12+010199999V0203401N006219999999N030000199+02471+02121100921ADDAA106000091AY111021AY211021GA1021+999991061GA2991+999991001GA3991+999991031GE19MSL   +99999+99999GF106991021990999990991991MA1999990099771MD1610281+9999MW1151REMSYN06694390 11580 63412 10247 20212 39977 40092 56028 60001 71511 82571=
0203943900999992014041120004-24717+153200FM-12+010199999V0203101N003619999999N025000199+02361+02011101001ADDAY111021AY211021GA1991+999991031GA2021+999991081GE19MSL   +99999+99999GF102991990990999990991991MA1999990099851MD1310091+9999MW1011REMSYN06094390 41475 23107 10236 20201 39985 40100 53009 70111 82850=
0246943900999992014041123004-24717+153200FM-12+010199999V0203101N003119999999N025000199+02781+02121101221ADDAA124000091AY101021AY201021GA1011+999991061GA2991+999991001GA3991+999991031GE19MSL   +99999+99999GF102991011990999990991991MA1999990100071MD1110221+9999MW1031REMSYN07694390 11575 23106 10278 20212 30007 40122 51022 60004 70300 81551 333 70000=
0236943900999992014041205004-24717+153200FM-12+010199999V0203101N003619999999N040000199+02771+02161100951ADDAA106000091AY101021AY201021GA1011+999991061GA2991+999991001GA3991+999991031GE19MSL   +99999+99999GF102991011990999990991991MA1999990099801MD1610151+9999MW1021REMSYN06694390 11582 23107 10277 20216 39980 40095 56015 60001 70200 81581=
0147943900999992014041220004-24730+153208FM-12+009999999V0200201N0021199999999008000199+02411+02261100991ADDAY111990AY211990GA1021+003001061GA2991+999991031GE19MSL   +99999+99999GF108991021990003001991991MA1999990099841MD1310051+9999MW1501REMSYN004BUFR
0230943900999992014041223004-24717+153200FM-12+010199999V0201601N001519999999N005000199+02431+02401101161ADDAA124001031AY161021AY251021GA1991+999991051GA2031+999991071GE19MSL   +99999+99999GF108991990990999990991991MA1999990100011MD1110171+9999MW1611REMSYN07694390 11450 81603 10243 20240 30001 40116 51017 60014 76165 83720 333 70010=
0220943900999992014041305004-24717+153200FM-12+010199999V0200901N006219999999N006000199+02021+01941100991ADDAA106027031AY161021AY261021GA1991+999991051GA2021+999991071GE19MSL   +99999+99999GF108991990990999990991991MA1999990099841MD1510111+9999MW1611REMSYN06694390 11456 80912 10202 20194 39984 40099 55011 60271 76166 82720=
0203943900999992014041320004-24717+153200FM-12+010199999V0200901N007719999999N010000199+02101+01931100831ADDAY161021AY261021GA1991+999991051GA2041+999991071GE19MSL   +99999+99999GF108991990990999990991991MA1999990099681MD1900011+9999MW1611REMSYN06094390 41460 80915 10210 20193 39968 40083 50001 76166 84720=
0241943900999992014041323004-24717+153200FM-12+010199999V0200901N012919999999N006000199+02121+02041100721ADDAA124050032AA224049732AY161021AY261021GA1991+999991051GA2051+999991071GE19MSL   +99999+99999GF108991990990999990991991MA1999990099571MD1810111+9999MW1611REMSYN07694390 11456 80925 10212 20204 39957 40072 58011 60504 76166 85720 333 70497=
0220943900999992014041405004-24717+153200FM-12+010199999V0201301N011319999999N005000199+02121+02071100401ADDAA106009031AY161021AY261021GA1991+999991051GA2041+999991071GE19MSL   +99999+99999GF108991990990999990991991MA1999990099261MD1710041+9999MW1601REMSYN06694390 11350 81322 10212 20207 39926 40040 57004 60091 76066 84720=
0147943900999992014041420004-24730+153208FM-12+009999999V0201601N0057100300199012000199+02161+01721101241ADDAY161990AY221990GA1061+003001061GA2991+999991001GE19MSL   +99999+99999GF106991061990003001991991MA1999990100091MD1310191+9999MW1151REMSYN004BUFR
0257943900999992014041423004-24717+153200FM-12+010199999V0201301N006219999999N025000199+02481+01751101361ADDAA124014032AA224013532AY111021AY211021GA1011+999991061GA2991+999991001GA3991+999991031GE19MSL   +99999+99999GF102991011990999990991991MA1999990100201MD1310121+9999MW1021REMSYN07694390 11575 21312 10248 20175 30020 40136 53012 60144 70211 81541 333 70135=
0236943900999992014041505004-24717+153200FM-12+010199999V0201601N005119999999N028000199+02381+01931101191ADDAA106000131AY181021AY251021GA1031+999991081GA2991+999991001GA3991+999991031GE19MSL   +99999+99999GF104991031990999990991991MA1999990100041MD1510051+9999MW1031REMSYN06694390 11578 41610 10238 20193 30004 40119 55005 69911 70385 83831=
0219943900999992014041520004-24717+153200FM-12+010199999V0201601N004119999999N012000199+01921+01771101441ADDAY101021AY201021GA1011+999991081GA2991+999991001GA3991+999991031GE19MSL   +99999+99999GF101991011990999990991991MA1999990100281MD1310071+9999MW1031REMSYN06094390 41562 11608 10192 20177 30028 40144 53007 70300 81151=
0246943900999992014041523004-24717+153200FM-12+010199999V0201801N004619999999N030000199+02331+01871101591ADDAA124000131AY101021AY201021GA1021+999991061GA2991+999991001GA3991+999991031GE19MSL   +99999+99999GF102991021990999990991991MA1999990100431MD1110151+9999MW1021REMSYN07694390 11580 21809 10233 20187 30043 40159 51015 69914 70200 82431 333 70001=
0220943900999992014041605004-24717+153200FM-12+010199999V0200501N004119999999N035000199+02511+01761101341ADDAA106000091AY101021AY201021GA1991+999991031GA2031+999991081GE19MSL   +99999+99999GF104991990990999990991991MA1999990100181MD1710091+9999MW1021REMSYN06694390 11581 40508 10251 20176 30018 40134 57009 60001 70200 83860=
0203943900999992014041620004-24717+153200FM-12+010199999V0201601N003119999999N025000199+02001+01741101601ADDAY101021AY201021GA1991+999991031GA2011+999991081GE19MSL   +99999+99999GF101991990990999990991991MA1999990100441MD1310091+9999MW1011REMSYN06094390 41575 11606 10200 20174 30044 40160 53009 70100 81830=
0230943900999992014041623004-24717+153200FM-12+010199999V0201301N002619999999N028000199+02481+01761101751ADDAA124000091AY101021AY201021GA1991+999991001GA2031+999991081GE19MSL   +99999+99999GF103991990990999990991991MA1999990100591MD1210161+9999MW1031REMSYN07694390 11578 31305 10248 20176 30059 40175 52016 60004 70300 83801 333 70000=
0236943900999992014041705004-24717+153200FM-12+010199999V0200701N002619999999N035000199+02491+01671101451ADDAA106000091AY101021AY201021GA1031+999991081GA2991+999991001GA3991+999991031GE19MSL   +99999+99999GF104991031990999990991991MA1999990100291MD1710191+9999MW1031REMSYN06694390 11581 40705 10249 20167 30029 40145 57019 60001 70300 83831=
0147943900999992014041720004-24730+153208FM-12+009999999V0202701N0005199999999025000199+02191+01791101591ADDAY101990AY201990GA1031+003001081GA2991+999991001GE19MSL   +99999+99999GF103991031990003001991991MA1999990100431MD1310021+9999MW1001REMSYN004BUFR
0230943900999992014041723004-24717+153200FM-12+010199999V0202501N002619999999N030000199+02501+01841101641ADDAA124000091AY101021AY201021GA1991+999991001GA2031+999991081GE19MSL   +99999+99999GF103991990990999990991991MA1999990100481MD1210051+9999MW1031REMSYN07694390 11580 32505 10250 20184 30048 40164 52005 60004 70300 83801 333 70000=
0220943900999992014041805004-24717+153200FM-12+010199999V0202301N005119999999N030000199+02641+02641101311ADDAA106000091AY101021AY201021GA1991+999991031GA2021+999991081GE19MSL   +99999+99999GF104991990990999990991991MA1999990100161MD1610171+9999MW1031REMSYN06694390 11580 42310 10264 20264 30016 40131 56017 60001 70300 82860=
0203943900999992014041820004-24717+153200FM-12+010199999V0202301N001519999999N020000199+02201+02201101581ADDAY111021AY211021GA1991+999991031GA2041+999991061GE19MSL   +99999+99999GF105991990990999990991991MA1999990100421MD1210021+9999MW1031REMSYN06094390 41570 52303 10220 20220 30042 40158 52002 70311 84560=
0214943900999992014041823004-24717+153200FM-12+010199999V0202001N002619999999N030000199+02421+02421101671ADDAA124000091AY101021AY201021GA1011+999991081GE19MSL   +99999+99999GF101991011990999990991991MA1999990100511MD1210091+9999MW1011REMSYN07694390 11580 12005 10242 20242 30051 40167 52009 60004 70100 81200 333 70000=
0204943900999992014041905004-24717+153200FM-12+010199999V0202301N002619999999N035000199+02821+00941101371ADDAA106000091AY101021AY201021GA1011+999991081GE19MSL   +99999+99999GF101991011990999990991991MA1999990100211MD1610151+9999MW1011REMSYN06694390 11581 12305 10282 20094 30021 40137 56015 60001 70100 81200=
0187943900999992014041920004-24717+153200FM-12+010199999V0209999C000019999999N030000199+02161+01561101601ADDAY101021AY201021GA1011+999991081GE19MSL   +99999+99999GF101991011990999990991991MA1999990100441MD1310091+9999MW1001REMSYN06094390 41580 10000 10216 20156 30044 40160 53009 70000 81200=
0214943900999992014041923004-24717+153200FM-12+010199999V0209999C000019999999N035000199+02541+01591101761ADDAA124000231AY101021AY201021GA1011+999991081GE19MSL   +99999+99999GF101991011990999990991991MA1999990100601MD1210161+9999MW1031REMSYN07694390 11581 10000 10254 20159 30060 40176 52016 69924 70300 81200 333 70002=
0236943900999992014042005004-24717+153200FM-12+010199999V0203601N001519999999N035000199+02581+01551101561ADDAA106000091AY121021AY221021GA1041+999991081GA2991+999991001GA3991+999991031GE19MSL   +99999+99999GF105991041990999990991991MA1999990100401MD1610121+9999MW1031REMSYN06694390 11481 53603 10258 20155 30040 40156 56012 60001 70322 84861=
0203943900999992014042020004-24717+153200FM-12+010199999V0200501N001519999999N025000199+02211+01431101901ADDAY101021AY201021GA1991+999991001GA2011+999991061GE19MSL   +99999+99999GF102991990990999990991991MA1999990100741MD1310131+9999MW1031REMSYN06094390 41575 20503 10221 20143 30074 40190 53013 70300 81501=
0214943900999992014042023004-24717+153200FM-12+010199999V0200501N002119999999N035000199+02631+01511102021ADDAA124000091AY101021AY201021GA1021+999991081GE19MSL   +99999+99999GF102991021990999990991991MA1999990100861MD1110121+9999MW1011REMSYN07694390 11581 20504 10263 20151 30086 40202 51012 60004 70100 82800 333 70000=
0220943900999992014042105004-24717+153200FM-12+010199999V0200901N002619999999N040000199+02531+01341101821ADDAA106000091AY101021AY201021GA1991+999991031GA2011+999991081GE19MSL   +99999+99999GF101991990990999990991991MA1999990100661MD1610131+9999MW1011REMSYN06694390 11582 10905 10253 20134 30066 40182 56013 60001 70100 81160=
0203943900999992014042120004-24717+153200FM-12+010199999V0200701N002619999999N020000199+02191+01541101941ADDAY101021AY201021GA1991+999991001GA2041+999991081GE19MSL   +99999+99999GF104991990990999990991991MA1999990100781MD1310061+9999MW1031REMSYN06094390 41570 40705 10219 20154 30078 40194 53006 70300 84801=
0230943900999992014042123004-24717+153200FM-12+010199999V0200501N002119999999N030000199+02511+01611102071ADDAA124000091AY101021AY201021GA1991+999991001GA2021+999991081GE19MSL   +99999+99999GF102991990990999990991991MA1999990100911MD1110141+9999MW1011REMSYN07694390 11580 20504 10251 20161 30091 40207 51014 60004 70100 82801 333 70000=
0220943900999992014042205004-24717+153200FM-12+010199999V0200701N003119999999N035000199+02491+01681101781ADDAA106000091AY111021AY211021GA1991+999991001GA2061+999991081GE19MSL   +99999+99999GF106991990990999990991991MA1999990100621MD1610131+9999MW1031REMSYN06694390 11481 60706 10249 20168 30062 40178 56013 60001 70311 86801=
0203943900999992014042220004-24717+153200FM-12+010199999V0200501N002619999999N020000199+02211+01691101741ADDAY111021AY211021GA1991+999991031GA2021+999991061GE19MSL   +99999+99999GF107991990990999990991991MA1999990100581MD1310041+9999MW1011REMSYN06094390 41570 70505 10221 20169 30058 40174 53004 70111 82550=
0230943900999992014042223004-24717+153200FM-12+010199999V0200501N006219999999N020000199+02381+01771101781ADDAA124000091AY121021AY221021GA1991+999991031GA2021+999991061GE19MSL   +99999+99999GF107991990990999990991991MA1999990100621MD1900031+9999MW1031REMSYN07694390 11470 70512 10238 20177 30062 40178 50003 60004 70322 82570 333 70000=
0220943900999992014042305004-24717+153200FM-12+010199999V0200501N002619999999N020000199+02451+01731101491ADDAA106000091AY121021AY221021GA1991+999991041GA2051+999991061GE19MSL   +99999+99999GF107991990990999990991991MA1999990100331MD1710191+9999MW1011REMSYN06694390 11570 70505 10245 20173 30033 40149 57019 60001 70122 85510=
0203943900999992014042320004-24717+153200FM-12+010199999V0201301N002119999999N018000199+02151+01831101461ADDAY121021AY221021GA1991+999991031GA2011+999991061GE19MSL   +99999+99999GF107991990990999990991991MA1999990100301MD1310051+9999MW1031REMSYN06094390 41468 71304 10215 20183 30030 40146 53005 70322 81570=
0230943900999992014042323004-24717+153200FM-12+010199999V0200901N001519999999N015000199+02361+01961101611ADDAA124000091AY121021AY221021GA1991+999991031GA2031+999991091GE19MSL   +99999+99999GF107991990990999990991991MA1999990100451MD1310121+9999MW1031REMSYN07694390 11565 70903 10236 20196 30045 40161 53012 60004 70322 83970 333 70000=
0220943900999992014042405004-24717+153200FM-12+010199999V0200201N012919999999N025000199+02411+01991101311ADDAA106000091AY101021AY201021GA1991+999991001GA2041+999991081GE19MSL   +99999+99999GF104991990990999990991991MA1999990100161MD1510161+9999MW1011REMSYN06694390 11475 40225 10241 20199 30016 40131 55016 60001 70100 84801=
0187943900999992014042420004-24717+153200FM-12+010199999V0201301N002619999999N018000199+02191+02021101511ADDAY101021AY201021GA1021+999991061GE19MSL   +99999+99999GF102991021990999990991991MA1999990100351MD1310101+9999MW1011REMSYN06094390 41568 21305 10219 20202 30035 40151 53010 70100 82400=
0246943900999992014042423004-24717+153200FM-12+010199999V0200701N001519999999N030000199+02491+02341101651ADDAA124000091AY101021AY201021GA1031+999991091GA2991+999991001GA3991+999991031GE19MSL   +99999+99999GF104991031990999990991991MA1999990100491MD1900161+9999MW1031REMSYN07694390 11480 40703 10249 20234 30049 40165 50016 60004 70300 83331 333 70000=
0220943900999992014042505004-24717+153200FM-12+010199999V0201101N001519999999N030000199+02621+02221101421ADDAA106000091AY101021AY201021GA1991+999991001GA2031+999991081GE19MSL   +99999+99999GF103991990990999990991991MA1999990100261MD1610141+9999MW1011REMSYN06694390 11480 31103 10262 20222 30026 40142 56014 60001 70100 83201=
0187943900999992014042520004-24717+153200FM-12+010199999V0201301N003119999999N025000199+02021+01931101591ADDAY181021AY281021GA1011+999991081GE19MSL   +99999+99999GF101991011990999990991991MA1999990100431MD1310021+9999MW1011REMSYN06094390 41575 11306 10202 20193 30043 40159 53002 70188 81200=
0225943900999992014042523004-24717+153200FM-12+010199999V0201301N002619999999N030000199+02491+02141101731ADDAA124002032AA224001832AY101021AY201021GA1021+999991081GE19MSL   +99999+99999GF102991021990999990991991MA1999990100571MD1110141+9999MW1031REMSYN07694390 11580 21305 10249 20214 30057 40173 51014 60024 70300 82200 333 70018=
0220943900999992014042605004-24717+153200FM-12+010199999V0201301N003119999999N030000199+02621+02031101401ADDAA106000091AY101021AY201021GA1991+999991001GA2011+999991081GE19MSL   +99999+99999GF101991990990999990991991MA1999990100241MD1610161+9999MW1011REMSYN06694390 11580 11306 10262 20203 30024 40140 56016 60001 70100 81201=
0187943900999992014042620004-24717+153200FM-12+010199999V0201601N002619999999N020000199+02011+01871101611ADDAY101021AY201021GA1011+999991081GE19MSL   +99999+99999GF101991011990999990991991MA1999990100451MD1310081+9999MW1011REMSYN06094390 41570 11605 10201 20187 30045 40161 53008 70100 81200=
0230943900999992014042623004-24717+153200FM-12+010199999V0201601N002119999999N030000199+02451+02211101741ADDAA124000091AY101021AY201021GA1991+999991001GA2021+999991081GE19MSL   +99999+99999GF103991990990999990991991MA1999990100581MD1110151+9999MW1031REMSYN07694390 11580 31604 10245 20221 30058 40174 51015 60004 70300 82201 333 70000=
0236943900999992014042705004-24717+153200FM-12+010199999V0201101N006219999999N035000199+02591+02161101441ADDAA106000091AY101021AY201021GA1031+999991081GA2991+999991001GA3991+999991031GE19MSL   +99999+99999GF103991031990999990991991MA1999990100281MD1610191+9999MW1011REMSYN06694390 11581 31112 10259 20216 30028 40144 56019 60001 70100 83231=
0203943900999992014042720004-24717+153200FM-12+010199999V0201301N002119999999N015000199+02151+01991101551ADDAY111021AY211021GA1991+999991031GA2051+999991091GE19MSL   +99999+99999GF107991990990999990991991MA1999990100391MD1310031+9999MW1151REMSYN06094390 41465 71304 10215 20199 30039 40155 53003 71511 85930=
0230943900999992014042723004-24717+153200FM-12+010199999V0201301N006219999999N010000199+02081+02051101751ADDAA124004031AY151021AY251021GA1991+999991031GA2041+999991091GE19MSL   +99999+99999GF104991990990999990991991MA1999990100591MD1210211+9999MW1501REMSYN07694390 11460 41312 10208 20205 30059 40175 52021 60044 75055 84930 333 70040=
0204943900999992014042805004-24717+153200FM-12+010199999V0201301N010319999999N007000199+02001+01921101541ADDAA106027031AY161021AY261021GA1081+999991091GE19MSL   +99999+99999GF108991081990999990991991MA1999990100381MD1510111+9999MW1641REMSYN06694390 11357 81320 10200 20192 30038 40154 55011 60271 76466 88900=
0187943900999992014042820004-24717+153200FM-12+010199999V0201101N006219999999N015000199+02181+01711101541ADDAY101021AY201021GA1031+999991061GE19MSL   +99999+99999GF103991031990999990991991MA1999990100381MD1310021+9999MW1011REMSYN06094390 41465 31112 10218 20171 30038 40154 53002 70100 83400=
0214943900999992014042823004-24717+153200FM-12+010199999V0201101N007719999999N020000199+02401+01921101681ADDAA124044031AY101021AY201021GA1031+999991061GE19MSL   +99999+99999GF103991031990999990991991MA1999990100521MD1210141+9999MW1011REMSYN07694390 11470 31115 10240 20192 30052 40168 52014 60444 70100 83400 333 70440=
0204943900999992014042905004-24717+153200FM-12+010199999V0202701N005119999999N015000199+02291+01931101431ADDAA106001031AY181021AY211021GA1071+999991091GE19MSL   +99999+99999GF107991071990999990991991MA1999990100271MD1610131+9999MW1251REMSYN06694390 11465 72710 10229 20193 30027 40143 56013 60011 72581 87900=
0203943900999992014042920004-24717+153200FM-12+010199999V0201301N002619999999N015000199+02051+01781101491ADDAY101021AY201021GA1991+999991031GA2031+999991081GE19MSL   +99999+99999GF104991990990999990991991MA1999990100331MD1310041+9999MW1011REMSYN06094390 41465 41305 10205 20178 30033 40149 53004 70100 83840=
0241943900999992014042923004-24717+153200FM-12+010199999V0200901N002619999999N020000199+02491+01851101551ADDAA124010032AA224010232AY101021AY201021GA1991+999991001GA2011+999991061GE19MSL   +99999+99999GF101991990990999990991991MA1999990100391MD1210061+9999MW1011REMSYN07694390 11570 10905 10249 20185 30039 40155 52006 60104 70100 81401 333 70102=
0220943900999992014043005004-24717+153200FM-12+010199999V0200501N002619999999N030000199+02501+01841101241ADDAA106000091AY111021AY211021GA1051+008001081GA2991+999991021GE19MSL   +99999+99999GF106991051990008001991991MA1999990100091MD1610151+9999MW1031REMSYN06694390 11580 60505 10250 20184 30009 40124 56015 60001 70311 85808=
0203943900999992014043020004-24717+153200FM-12+010199999V0201601N001019999999N015000199+02101+01931101401ADDAY101021AY201021GA1021+008001081GA2991+999991031GE19MSL   +99999+99999GF103991021990008001991991MA1999990100231MD1310071+9999MW1011REMSYN06094390 41565 31602 10210 20193 30023 40140 53007 70100 82830=
0230943900999992014043023004-24717+153200FM-12+010199999V0203601N001019999999N020000199+02501+01861101511ADDAA124000091AY111021AY211021GA1051+004501081GA2991+999991031GE19MSL   +99999+99999GF105991051990004501991991MA1999990100341MD1110101+9999MW1031REMSYN07694390 11470 53602 10250 20186 30034 40151 51010 60004 70311 85830 333 70000=
0239943900999992014050105004-24717+153200FM-12+010199999V0203601N002119999999N025000199+02511+01891101211ADDAA106000091AY101021AY201021GA1031+004501091GA2991+999991001GE19MSL   +99999+99999GF103991031990004501991991MA1999990100051MD1610151+9999MW1031REMSYN06694390 11475 33604 10251 20189 30005 40121 56015 69901 70300 83901=EQDQ01  00002PRCP06
0203943900999992014050120004-24717+153200FM-12+010199999V0203601N005119999999N015000199+02281+01751101031ADDAY111021AY211021GA1071+004501081GA2991+999991031GE19MSL   +99999+99999GF107991071990004501991991MA1999990099871MD1710061+9999MW1031REMSYN06094390 41465 73610 10228 20175 39987 40103 57006 70311 87850=
0249943900999992014050123004-24717+153200FM-12+010199999V0203401N001019999999N020000199+02351+01931101141ADDAA124000091AY121021AY221021GA1081+002501091GE19MSL   +99999+99999GF108991081990002501991991MA1999990099981MD1110101+9999MW1021REMSYN07694390 11370 83402 10235 20193 39998 40114 51010 69904 70222 88900 333 79999=EQDQ01  00002PRCP24Q02  00002PRCP24
0236943900999992014050205004-24717+153200FM-12+010199999V0203401N004119999999N025000199+02461+02031100591ADDAA106001031AY181021AY221021GA1051+004501081GA2991+999991031GA3991+999991001GE19MSL   +99999+99999GF107991051990004501991991MA1999990099431MD1810291+9999MW1011REMSYN06694390 11475 73408 10246 20203 39943 40059 58029 60011 70182 85831=
0203943900999992014050220004-24717+153200FM-12+010199999V0202001N007719999999N020000199+01901+01161100561ADDAY191021AY291021GA1011+008001081GA2991+999991031GE19MSL   +99999+99999GF106991011990008001991991MA1999990099401MD1310221+9999MW1011REMSYN06094390 41570 62015 10190 20116 39940 40056 53022 70199 81150=
0257943900999992014050223004-24717+153200FM-12+010199999V0202301N010319999999N030000199+02041+01031100721ADDAA124014032AA224014432AY101021AY201021GA1011+008001061GA2991+999991031GA3991+999991021GE19MSL   +99999+99999GF104991011990008001991991MA1999990099561MD1110181+9999MW1011REMSYN07694390 11580 42320 10204 20103 39956 40072 51018 60144 70100 81538 333 70144=
0204943900999992014050305004-24717+153200FM-12+010199999V0202301N005119999999N025000199+01881+01071100561ADDAA106000091AY111021AY211021GA1071+004501081GE19MSL   +99999+99999GF107991071990004501991991MA1999990099401MD1710081+9999MW1031REMSYN06694390 11475 72310 10188 20107 39940 40056 57008 60001 70311 87800=
0187943900999992014050320004-24717+153200FM-12+010199999V0202001N007719999999N015000199+01451+00211101261ADDAY101021AY201021GA1011+004501081GE19MSL   +99999+99999GF101991011990004501991991MA1999990100091MD1310181+9999MW1011REMSYN06094390 41465 12015 10145 20021 30009 40126 53018 70100 81800=
0214943900999992014050323004-24717+153200FM-12+010199999V0202001N010319999999N030000199+01631+00531101461ADDAA124000091AY101021AY201021GA1011+008001081GE19MSL   +99999+99999GF101991011990008001991991MA1999990100291MD1110201+9999MW1011REMSYN07694390 11580 12020 10163 20053 30029 40146 51020 60004 70100 81100 333 70000=
0134943900999992014050405004-24717+153200FM-12+010199999V0202301N007719999999N040000199+01921+00771101291ADDAA106000091AY101021AY201021MA1999990100121MD1610101+9999MW1011REMSYN06094390 11982 02315 10192 20077 30012 40129 56010 60001 70100=
0187943900999992014050420004-24717+153200FM-12+010199999V0201801N005119999999N025000199+01591+00701101841ADDAY101021AY201021GA1011+008001061GE19MSL   +99999+99999GF101991011990008001991991MA1999990100671MD1310121+9999MW1021REMSYN06094390 41575 11810 10159 20070 30067 40184 53012 70200 81500=
0214943900999992014050423004-24717+153200FM-12+010199999V0201801N007719999999N040000199+01931+00931102031ADDAA124000091AY101021AY201021GA1011+008001061GE19MSL   +99999+99999GF101991011990008001991991MA1999990100861MD1110201+9999MW1021REMSYN07694390 11582 11815 10193 20093 30086 40203 51020 60004 70200 81500 333 70000=
0204943900999992014050505004-24717+153200FM-12+010199999V0202301N006219999999N040000199+02101+00871101841ADDAA106000091AY101021AY201021GA1011+008001061GE19MSL   +99999+99999GF101991011990008001991991MA1999990100671MD1610101+9999MW1021REMSYN06694390 11582 12312 10210 20087 30067 40184 56010 60001 70200 81500=
0187943900999992014050520004-24717+153200FM-12+010199999V0201801N005119999999N020000199+01611+01231101991ADDAY111021AY211021GA1041+008001081GE19MSL   +99999+99999GF104991041990008001991991MA1999990100821MD1310041+9999MW1031REMSYN06094390 41570 41810 10161 20123 30082 40199 53004 70311 84800=
0204943900999992014050705004-24717+153200FM-12+010199999V0202301N001019999999N025000199+02101+00901101661ADDAA100000091AY101021AY201021GA1011+999991061GE19MSL   +99999+99999GF101991011990999990991991MA1999990100491MD1610091+9999MW1001REMSYN06694390 11/75 12302 10210 20090 30049 40166 56009 60000 70000 81400=
0203943900999992014050720004-24717+153200FM-12+010199999V0201601N004119999999N015000199+01701+01401101731ADDAY101021AY201021GA1021+999991061GA2991+999991031GE19MSL   +99999+99999GF103991021990999990991991MA1999990100561MD1310031+9999MW1031REMSYN06094390 41/65 31608 10170 20140 30056 40173 53003 70300 82480=
0257943900999992014050723004-24717+153200FM-12+010199999V0201801N004119999999N018000199+02181+01691101891ADDAA100000091AA224999919AY101021AY201021GA1021+999991091GA2991+999991031GA3991+999991021GE19MSL   +99999+99999GF104991021990999990991991MA1999990100721MD1110151+9999MW1031REMSYN07694390 11/68 41808 10218 20169 30072 40189 51015 60000 70300 82388 333 7////=
0220943900999992014050805004-24717+153200FM-12+010199999V0201601N005119999999N025000199+01991+01811101611ADDAA106000831AY181021AY211021GA1071+999991081GA2991+999991031GE19MSL   +99999+99999GF107991071990999990991991MA1999990100441MD1510091+9999MW1031REMSYN06694390 11/75 71610 10199 20181 30044 40161 55009 69981 70381 87850=
0203943900999992014050820004-24717+153200FM-12+010199999V0201101N005119999999N018000199+01951+01431101881ADDAY191021AY261021GA1021+999991061GA2991+999991031GE19MSL   +99999+99999GF102991021990999990991991MA1999990100711MD1310061+9999MW1011REMSYN06094390 41/68 21110 10195 20143 30071 40188 53006 70196 82550=
0241943900999992014050823004-24717+153200FM-12+010199999V0201301N006219999999N010000199+02001+01651102091ADDAA124027032AA224027232AY151021AY201021GA1041+999991061GA2991+999991031GE19MSL   +99999+99999GF104991041990999990991991MA1999990100921MD1110211+9999MW1251REMSYN07694390 11/60 41312 10200 20165 30092 40209 51021 60274 72550 84430 333 70272=
0220943900999992014050905004-24717+153200FM-12+010199999V0201101N004119999999N018000199+02241+01371101891ADDAA106000021AY151021AY211021GA1041+999991081GA2991+999991031GE19MSL   +99999+99999GF105991041990999990991991MA1999990100721MD1510051+9999MW1021REMSYN06694390 11/68 51108 10224 20137 30072 40189 55005 69901 70251 84270=
0203943900999992014050920004-24717+153200FM-12+010199999V0200701N004119999999N018000199+01981+01291102051ADDAY121021AY221021GA1041+999991061GA2991+999991031GE19MSL   +99999+99999GF107991041990999990991991MA1999990100881MD1310041+9999MW1151REMSYN06094390 41/68 70708 10198 20129 30088 40205 53004 71522 84430=
0230943900999992014050923004-24717+153200FM-12+010199999V0200201N002119999999N018000199+02341+01431102231ADDAA124000231AY151021AY221021GA1051+999991091GA2991+999991031GE19MSL   +99999+99999GF105991051990999990991991MA1999990101051MD1110171+9999MW1011REMSYN07694390 11/68 50204 10234 20143 30105 40223 51017 69924 70152 85330 333 70002=
0220943900999992014051005004-24717+153200FM-12+010199999V0200901N004119999999N018000199+02271+01341101961ADDAA106000091AY111021AY211021GA1061+999991081GA2991+999991031GE19MSL   +99999+99999GF106991061990999990991991MA1999990100791MD1610161+9999MW1031REMSYN06694390 11/68 60908 10227 20134 30079 40196 56016 60001 70311 86830=
0203943900999992014051020004-24717+153200FM-12+010199999V0200901N005119999999N018000199+02021+01281102061ADDAY111021AY211021GA1021+999991061GA2991+999991031GE19MSL   +99999+99999GF103991021990999990991991MA1999990100891MD1310081+9999MW1001REMSYN06094390 41/68 30910 10202 20128 30089 40206 53008 70011 82470=
0230943900999992014051023004-24717+153200FM-12+010199999V0200901N004119999999N018000199+02341+01511102221ADDAA124000091AY101021AY201021GA1021+999991081GA2991+999991031GE19MSL   +99999+99999GF103991021990999990991991MA1999990101041MD1210131+9999MW1011REMSYN07694390 11/68 30908 10234 20151 30104 40222 52013 60004 70100 82250 333 70000=
0204943900999992014051105004-24717+153200FM-12+010199999V0200901N002119999999N025000199+02341+01581102001ADDAA106000091AY101021AY201021GA1031+999991091GE19MSL   +99999+99999GF103991031990999990991991MA1999990100831MD1510111+9999MW1021REMSYN06694390 11/75 30904 10234 20158 30083 40200 55011 60001 70200 83300=
0203943900999992014051120004-24717+153200FM-12+010199999V0200901N004119999999N018000199+01901+01581102181ADDAY161021AY211021GA1071+999991061GA2991+999991031GE19MSL   +99999+99999GF108991071990999990991991MA1999990101001MD1310091+9999MW1251REMSYN06094390 41/68 80908 10190 20158 30100 40218 53009 72561 87590=
0225943900999992014051123004-24717+153200FM-12+010199999V0200901N007719999999N000000199+01811+01791102411ADDAA124015032AA224014632AY121021AY221021GA1081+999991071GE19MSL   +99999+99999GF108991081990999990991991MA1999990101231MD1310241+9999MW1621REMSYN07694390 11/00 80915 10181 20179 30123 40241 53024 60154 76222 88600 333 70146=
0220943900999992014051205004-24717+153200FM-12+010199999V0200901N003119999999N025000199+02271+01501102161ADDAA106023031AY161021AY221021GA1041+999991081GA2991+999991031GE19MSL   +99999+99999GF105991041990999990991991MA1999990100981MD1610121+9999MW1011REMSYN06694390 11/75 50906 10227 20150 30098 40216 56012 60231 70162 84850=
0203943900999992014051220004-24717+153200FM-12+010199999V0201101N003119999999N025000199+02111+01451102211ADDAY151021AY221021GA1051+999991081GA2991+999991031GE19MSL   +99999+99999GF106991051990999990991991MA1999990101031MD1310071+9999MW1001REMSYN06094390 41/75 61106 10211 20145 30103 40221 53007 70052 85890=
0241943900999992014051223004-24717+153200FM-12+010199999V0200901N003119999999N025000199+02301+01591102331ADDAA124024032AA224023632AY121021AY221021GA1041+999991081GA2991+999991041GE19MSL   +99999+99999GF105991041990999990991991MA1999990101151MD1310111+9999MW1011REMSYN07694390 11/75 50906 10230 20159 30115 40233 53011 60244 70122 84810 333 70236=
0220943900999992014051305004-24717+153200FM-12+010199999V0201301N008219999999N025000199+02291+01651102041ADDAA106000091AY111021AY211021GA1031+999991081GA2991+999991031GE19MSL   +99999+99999GF103991031990999990991991MA1999990100871MD1610141+9999MW1021REMSYN06694390 11/75 31316 10229 20165 30087 40204 56014 60001 70211 83230=
0203943900999992014051320004-24717+153200FM-12+010199999V0200901N004119999999N018000199+02091+01481102081ADDAY151021AY201021GA1021+999991081GA2991+999991031GE19MSL   +99999+99999GF103991021990999990991991MA1999990100911MD1310051+9999MW1001REMSYN06094390 41/68 30908 10209 20148 30091 40208 53005 70050 82830=
0230943900999992014051323004-24717+153200FM-12+010199999V0201301N006219999999N025000199+02341+01711102231ADDAA124006031AY151021AY201021GA1041+999991081GA2991+999991031GE19MSL   +99999+99999GF104991041990999990991991MA1999990101051MD1210141+9999MW1021REMSYN07694390 11/75 41312 10234 20171 30105 40223 52014 60064 70250 84830 333 70060=
0220943900999992014051405004-24717+153200FM-12+010199999V0200901N005119999999N025000199+02361+01611101951ADDAA106000091AY101021AY201021GA1021+999991081GA2991+999991031GE19MSL   +99999+99999GF103991021990999990991991MA1999990100781MD1610121+9999MW1011REMSYN06694390 11/75 30910 10236 20161 30078 40195 56012 60001 70100 82230=
0187943900999992014051420004-24717+153200FM-12+010199999V0200901N009319999999N018000199+02101+01581102061ADDAY151021AY201021GA1041+999991061GE19MSL   +99999+99999GF104991041990999990991991MA1999990100891MD1310041+9999MW1001REMSYN06094390 41/68 40918 10210 20158 30089 40206 53004 70050 84500=
0214943900999992014051423004-24717+153200FM-12+010199999V0200701N004119999999N018000199+02291+01651102241ADDAA124000431AY151021AY201021GA1031+999991081GE19MSL   +99999+99999GF103991031990999990991991MA1999990101061MD1110171+9999MW1011REMSYN07694390 11/68 30708 10229 20165 30106 40224 51017 69944 70150 83800 333 70004=
